{
  "contractName": "EmployerModule",
  "abi": [
    {
      "inputs": [
        {
          "internalType": "address",
          "name": "",
          "type": "address"
        }
      ],
      "name": "employers",
      "outputs": [
        {
          "internalType": "address",
          "name": "employerAddress",
          "type": "address"
        },
        {
          "internalType": "uint256",
          "name": "balance",
          "type": "uint256"
        }
      ],
      "stateMutability": "view",
      "type": "function"
    },
    {
      "inputs": [
        {
          "internalType": "address",
          "name": "_employer",
          "type": "address"
        },
        {
          "internalType": "uint256",
          "name": "_amount",
          "type": "uint256"
        }
      ],
      "name": "addEmployerBalance",
      "outputs": [],
      "stateMutability": "nonpayable",
      "type": "function"
    },
    {
      "inputs": [
        {
          "internalType": "address",
          "name": "_employer",
          "type": "address"
        }
      ],
      "name": "getEmployerBalance",
      "outputs": [
        {
          "internalType": "uint256",
          "name": "",
          "type": "uint256"
        }
      ],
      "stateMutability": "view",
      "type": "function"
    }
  ],
  "bytecode": "0x608060405234801561000f575f80fd5b5061038d8061001d5f395ff3fe608060405234801561000f575f80fd5b506004361061003f575f3560e01c80630be435bd146100435780632e9db8d71461007457806385ef93f8146100a4575b5f80fd5b61005d600480360381019061005891906101fd565b6100c0565b60405161006b92919061024f565b60405180910390f35b61008e600480360381019061008991906101fd565b6100fe565b60405161009b9190610276565b60405180910390f35b6100be60048036038101906100b991906102b9565b610146565b005b5f602052805f5260405f205f91509050805f015f9054906101000a900473ffffffffffffffffffffffffffffffffffffffff16908060010154905082565b5f805f8373ffffffffffffffffffffffffffffffffffffffff1673ffffffffffffffffffffffffffffffffffffffff1681526020019081526020015f20600101549050919050565b805f808473ffffffffffffffffffffffffffffffffffffffff1673ffffffffffffffffffffffffffffffffffffffff1681526020019081526020015f206001015f8282546101949190610324565b925050819055505050565b5f80fd5b5f73ffffffffffffffffffffffffffffffffffffffff82169050919050565b5f6101cc826101a3565b9050919050565b6101dc816101c2565b81146101e6575f80fd5b50565b5f813590506101f7816101d3565b92915050565b5f602082840312156102125761021161019f565b5b5f61021f848285016101e9565b91505092915050565b610231816101c2565b82525050565b5f819050919050565b61024981610237565b82525050565b5f6040820190506102625f830185610228565b61026f6020830184610240565b9392505050565b5f6020820190506102895f830184610240565b92915050565b61029881610237565b81146102a2575f80fd5b50565b5f813590506102b38161028f565b92915050565b5f80604083850312156102cf576102ce61019f565b5b5f6102dc858286016101e9565b92505060206102ed858286016102a5565b9150509250929050565b7f4e487b71000000000000000000000000000000000000000000000000000000005f52601160045260245ffd5b5f61032e82610237565b915061033983610237565b9250828201905080821115610351576103506102f7565b5b9291505056fea2646970667358221220c502220a8701677cbafc2695ab6c85b642a0ac838cd364f218fd5f920cb7bcc964736f6c63430008150033",
  "immutableReferences": {},
  "source": "// SPDX-License-Identifier: UNLICENSED\npragma solidity ^0.8.0;\n\ncontract EmployerModule {\n    struct Employer {\n        address employerAddress;\n        uint256 balance;\n    }\n\n    mapping(address => Employer) public employers;\n\n    function addEmployerBalance(address _employer, uint256 _amount) public {\n        employers[_employer].balance += _amount;\n    }\n\n    function getEmployerBalance(address _employer) public view returns (uint256) {\n        return employers[_employer].balance;\n    }\n}\n\n",
  "sourcePath": "/Users/mac/blockchain-insurance-system/contracts/EmployerModule.sol",
  "compiler": {
    "name": "solc",
    "version": "0.8.21+commit.d9974bed.Emscripten.clang"
  },
  "schemaVersion": "3.4.16",
  "updatedAt": "2024-12-16T09:41:45.638Z",
  "devdoc": {
    "kind": "dev",
    "methods": {},
    "version": 1
  },
  "userdoc": {
    "kind": "user",
    "methods": {},
    "version": 1
  }
}