{
  "contractName": "SocialSecurity",
  "abi": [
    {
      "inputs": [
        {
          "internalType": "address",
          "name": "",
          "type": "address"
        }
      ],
      "name": "employees",
      "outputs": [
        {
          "internalType": "address",
          "name": "employeeAddress",
          "type": "address"
        },
        {
          "internalType": "uint256",
          "name": "socialSecurityBalance",
          "type": "uint256"
        },
        {
          "internalType": "address",
          "name": "employer",
          "type": "address"
        }
      ],
      "stateMutability": "view",
      "type": "function"
    },
    {
      "inputs": [
        {
          "internalType": "address",
          "name": "",
          "type": "address"
        }
      ],
      "name": "employers",
      "outputs": [
        {
          "internalType": "address",
          "name": "employerAddress",
          "type": "address"
        },
        {
          "internalType": "uint256",
          "name": "balance",
          "type": "uint256"
        }
      ],
      "stateMutability": "view",
      "type": "function"
    },
    {
      "stateMutability": "payable",
      "type": "receive"
    },
    {
      "inputs": [
        {
          "internalType": "address",
          "name": "_employer",
          "type": "address"
        },
        {
          "internalType": "uint256",
          "name": "_amount",
          "type": "uint256"
        }
      ],
      "name": "addEmployerBalance",
      "outputs": [],
      "stateMutability": "nonpayable",
      "type": "function"
    },
    {
      "inputs": [
        {
          "internalType": "address",
          "name": "_employee",
          "type": "address"
        },
        {
          "internalType": "uint256",
          "name": "_amount",
          "type": "uint256"
        }
      ],
      "name": "handleEmployeeInsurance",
      "outputs": [],
      "stateMutability": "nonpayable",
      "type": "function"
    },
    {
      "inputs": [
        {
          "internalType": "address",
          "name": "_employee",
          "type": "address"
        },
        {
          "internalType": "address",
          "name": "_employer",
          "type": "address"
        }
      ],
      "name": "bindEmployer",
      "outputs": [],
      "stateMutability": "nonpayable",
      "type": "function"
    },
    {
      "inputs": [
        {
          "internalType": "address",
          "name": "_fromEmployee",
          "type": "address"
        },
        {
          "internalType": "address",
          "name": "_toEmployee",
          "type": "address"
        }
      ],
      "name": "transferAccount",
      "outputs": [],
      "stateMutability": "nonpayable",
      "type": "function"
    },
    {
      "inputs": [
        {
          "internalType": "address",
          "name": "_employer",
          "type": "address"
        }
      ],
      "name": "getEmployerBalance",
      "outputs": [
        {
          "internalType": "uint256",
          "name": "",
          "type": "uint256"
        }
      ],
      "stateMutability": "view",
      "type": "function"
    },
    {
      "inputs": [
        {
          "internalType": "address",
          "name": "_employee",
          "type": "address"
        }
      ],
      "name": "getEmployeeBalance",
      "outputs": [
        {
          "internalType": "uint256",
          "name": "",
          "type": "uint256"
        }
      ],
      "stateMutability": "view",
      "type": "function"
    }
  ],
  "bytecode": "0x608060405234801561000f575f80fd5b50610aee8061001d5f395ff3fe60806040526004361061007e575f3560e01c80635d26cc871161004d5780635d26cc871461016657806385ef93f81461018e57806396b4f7a3146101b6578063d0678947146101de57610085565b80630be435bd146100895780630d882194146100c6578063212fd6f2146100ee5780632e9db8d71461012a57610085565b3661008557005b5f80fd5b348015610094575f80fd5b506100af60048036038101906100aa91906107d8565b61021c565b6040516100bd92919061082a565b60405180910390f35b3480156100d1575f80fd5b506100ec60048036038101906100e79190610851565b61025a565b005b3480156100f9575f80fd5b50610114600480360381019061010f91906107d8565b6102dc565b604051610121919061088f565b60405180910390f35b348015610135575f80fd5b50610150600480360381019061014b91906107d8565b610325565b60405161015d919061088f565b60405180910390f35b348015610171575f80fd5b5061018c600480360381019061018791906108d2565b61036d565b005b348015610199575f80fd5b506101b460048036038101906101af91906108d2565b61055c565b005b3480156101c1575f80fd5b506101dc60048036038101906101d79190610851565b6105b5565b005b3480156101e9575f80fd5b5061020460048036038101906101ff91906107d8565b610716565b60405161021393929190610910565b60405180910390f35b5f602052805f5260405f205f91509050805f015f9054906101000a900473ffffffffffffffffffffffffffffffffffffffff16908060010154905082565b8060015f8473ffffffffffffffffffffffffffffffffffffffff1673ffffffffffffffffffffffffffffffffffffffff1681526020019081526020015f206002015f6101000a81548173ffffffffffffffffffffffffffffffffffffffff021916908373ffffffffffffffffffffffffffffffffffffffff1602179055505050565b5f60015f8373ffffffffffffffffffffffffffffffffffffffff1673ffffffffffffffffffffffffffffffffffffffff1681526020019081526020015f20600101549050919050565b5f805f8373ffffffffffffffffffffffffffffffffffffffff1673ffffffffffffffffffffffffffffffffffffffff1681526020019081526020015f20600101549050919050565b805f8060015f8673ffffffffffffffffffffffffffffffffffffffff1673ffffffffffffffffffffffffffffffffffffffff1681526020019081526020015f206002015f9054906101000a900473ffffffffffffffffffffffffffffffffffffffff1673ffffffffffffffffffffffffffffffffffffffff1673ffffffffffffffffffffffffffffffffffffffff1681526020019081526020015f2060010154101561044e576040517f08c379a00000000000000000000000000000000000000000000000000000000081526004016104459061099f565b60405180910390fd5b805f8060015f8673ffffffffffffffffffffffffffffffffffffffff1673ffffffffffffffffffffffffffffffffffffffff1681526020019081526020015f206002015f9054906101000a900473ffffffffffffffffffffffffffffffffffffffff1673ffffffffffffffffffffffffffffffffffffffff1673ffffffffffffffffffffffffffffffffffffffff1681526020019081526020015f206001015f8282546104fb91906109ea565b925050819055508060015f8473ffffffffffffffffffffffffffffffffffffffff1673ffffffffffffffffffffffffffffffffffffffff1681526020019081526020015f206001015f8282546105519190610a1d565b925050819055505050565b805f808473ffffffffffffffffffffffffffffffffffffffff1673ffffffffffffffffffffffffffffffffffffffff1681526020019081526020015f206001015f8282546105aa9190610a1d565b925050819055505050565b5f60015f8473ffffffffffffffffffffffffffffffffffffffff1673ffffffffffffffffffffffffffffffffffffffff1681526020019081526020015f206001015411610637576040517f08c379a000000000000000000000000000000000000000000000000000000000815260040161062e90610a9a565b60405180910390fd5b60015f8373ffffffffffffffffffffffffffffffffffffffff1673ffffffffffffffffffffffffffffffffffffffff1681526020019081526020015f206001015460015f8373ffffffffffffffffffffffffffffffffffffffff1673ffffffffffffffffffffffffffffffffffffffff1681526020019081526020015f206001015f8282546106c69190610a1d565b925050819055505f60015f8473ffffffffffffffffffffffffffffffffffffffff1673ffffffffffffffffffffffffffffffffffffffff1681526020019081526020015f20600101819055505050565b6001602052805f5260405f205f91509050805f015f9054906101000a900473ffffffffffffffffffffffffffffffffffffffff1690806001015490806002015f9054906101000a900473ffffffffffffffffffffffffffffffffffffffff16905083565b5f80fd5b5f73ffffffffffffffffffffffffffffffffffffffff82169050919050565b5f6107a78261077e565b9050919050565b6107b78161079d565b81146107c1575f80fd5b50565b5f813590506107d2816107ae565b92915050565b5f602082840312156107ed576107ec61077a565b5b5f6107fa848285016107c4565b91505092915050565b61080c8161079d565b82525050565b5f819050919050565b61082481610812565b82525050565b5f60408201905061083d5f830185610803565b61084a602083018461081b565b9392505050565b5f80604083850312156108675761086661077a565b5b5f610874858286016107c4565b9250506020610885858286016107c4565b9150509250929050565b5f6020820190506108a25f83018461081b565b92915050565b6108b181610812565b81146108bb575f80fd5b50565b5f813590506108cc816108a8565b92915050565b5f80604083850312156108e8576108e761077a565b5b5f6108f5858286016107c4565b9250506020610906858286016108be565b9150509250929050565b5f6060820190506109235f830186610803565b610930602083018561081b565b61093d6040830184610803565b949350505050565b5f82825260208201905092915050565b7f496e73756666696369656e7420656d706c6f7965722062616c616e63650000005f82015250565b5f610989601d83610945565b915061099482610955565b602082019050919050565b5f6020820190508181035f8301526109b68161097d565b9050919050565b7f4e487b71000000000000000000000000000000000000000000000000000000005f52601160045260245ffd5b5f6109f482610812565b91506109ff83610812565b9250828203905081811115610a1757610a166109bd565b5b92915050565b5f610a2782610812565b9150610a3283610812565b9250828201905080821115610a4a57610a496109bd565b5b92915050565b7f4e6f2062616c616e636520746f207472616e73666572000000000000000000005f82015250565b5f610a84601683610945565b9150610a8f82610a50565b602082019050919050565b5f6020820190508181035f830152610ab181610a78565b905091905056fea264697066735822122019ca7b14256adb852bcebd20e3368b0c1b251ee8c52595685681c8267df35ba664736f6c63430008150033",
  "immutableReferences": {},
  "source": "// Blockchain Social Security Insurance System Project Code\n// Includes smart contracts, front-end, and back-end\n\n// Step 1: Smart Contracts (Solidity)\n// SPDX-License-Identifier: UNLICENSED\npragma solidity ^0.8.0;\n\ncontract SocialSecurity {\n    struct Employer {\n        address employerAddress;\n        uint256 balance;\n    }\n\n    struct Employee {\n        address employeeAddress;\n        uint256 socialSecurityBalance;\n        address employer;\n    }\n\n    mapping(address => Employer) public employers;\n    mapping(address => Employee) public employees;\n\n    // Add Employer Balance\n    function addEmployerBalance(address _employer, uint256 _amount) public {\n        employers[_employer].balance += _amount;\n    }\n\n    // Handle Employee Insurance\n    function handleEmployeeInsurance(address _employee, uint256 _amount) public {\n        require(employers[employees[_employee].employer].balance >= _amount, \"Insufficient employer balance\");\n        employers[employees[_employee].employer].balance -= _amount;\n        employees[_employee].socialSecurityBalance += _amount;\n    }\n\n    // Bind Employee to Employer\n    function bindEmployer(address _employee, address _employer) public {\n        employees[_employee].employer = _employer;\n    }\n\n    // Transfer Social Security Account\n    function transferAccount(address _fromEmployee, address _toEmployee) public {\n        require(employees[_fromEmployee].socialSecurityBalance > 0, \"No balance to transfer\");\n        employees[_toEmployee].socialSecurityBalance += employees[_fromEmployee].socialSecurityBalance;\n        employees[_fromEmployee].socialSecurityBalance = 0;\n    }\n\n    // Retrieve Employer Balance\n    function getEmployerBalance(address _employer) public view returns (uint256) {\n        return employers[_employer].balance;\n    }\n\n    // Retrieve Employee Balance\n    function getEmployeeBalance(address _employee) public view returns (uint256) {\n        return employees[_employee].socialSecurityBalance;\n    }\n\n    // Fallback function to accept payments\n    receive() external payable {}\n}\n",
  "sourcePath": "/Users/mac/blockchain-insurance-system/contracts/SocialSecurity.sol",
  "compiler": {
    "name": "solc",
    "version": "0.8.21+commit.d9974bed.Emscripten.clang"
  },
  "schemaVersion": "3.4.16",
  "updatedAt": "2024-12-16T09:41:45.655Z",
  "devdoc": {
    "kind": "dev",
    "methods": {},
    "version": 1
  },
  "userdoc": {
    "kind": "user",
    "methods": {},
    "version": 1
  }
}